S01900004C454420546F77657220446566656E73652E737265632B
S11300004DC0000068C0000066C0000064C000006D
S113001062C0000060C000005EC000005CC0000060
S11300205AC0000058C0000056C0000054C0000070
S113003052C00000A5C100004EC000004CC000002A
S11300404AC0000048C0000046C0000044C0000090
S113005042C0000040C000003EC000003CC00000A0
S11300603AC0000038C0000036C0000034C00000B0
S113007032C0000030C000002EC000002CC00000C0
S11300802AC0000028C0000026C00000F400A3001D
S1130090BE00F400C500F400CC00F40011241FBE1F
S11300A0CFEFD0E4DEBFCDBF11E0A0E0B1E0EEE4DD
S11300B0F9E000E00BBF02C007900D92AE3AB10721
S11300C0D9F722E0AEEAB1E001C01D92A632B20730
S11300D0E1F790D23AC494CF82309105E1F034F440
S11300E0009759F08130910559F0089584309105B5
S11300F0C9F01CF085309105F1F481E090E0089599
S113010020910D022223B9F080912502811111C0A2
S113011082E090E0089520910D0221110CC083E04B
S113012090E0089520910D02211105C085E090E032
S1130130089584E090E0089588309105A0F5FC01CD
S1130140EA5BFF4FF9C320910C02222329F020918E
S11301502502222389F1089520910602222329F001
S113016020912502222381F1089520911002222357
S1130170E9F120912502222379F1089580910C025E
S113018081111AC083E090E00895809106028111E4
S11301901BC085E090E008958091100281111CC07D
S11301A087E090E008958430910571F086309105E0
S11301B099F082309105D1F48091E70180618093B8
S11301C0E70182E090E008958091E70180628093E6
S11301D0E70184E090E008958091E70180638093D3
S11301E0E70186E090E0089581E090E00895813091
S11301F0910559F01CF40097C9F11BC08230910598
S113020099F08330910591F114C020910E022111CF
S113021030C02091E601233079F120910001309122
S11302200101232B61F1089520910E02211129C0AF
S113023003C08330910529F5809102019091030157
S1130240019690930301809302018091E6018F5FF0
S11302508093E601809100019091010101969093B1
S113026001018093000183E090E0089581E090E033
S1130270089582E090E0089584E090E0089585E098
S113028090E00895181619065CF0089500002150B6
S11302903109E1F74F5F5F4F4817590729F4089573
S11302A040E050E077E063E0272F362FEFCF5C98F3
S11302B085B95D9A00005D9882E090E0E3CF0895EF
S11302C081E0F5CF0895813118F48158F0CF089575
S11302D08155EDCF089584E690E0D4DF88E3E7DF2D
S11302E086E0E5DF8FE0E3DF81E0E1DF8AE090E0B4
S11302F0C9CF08955C9A85B95D9A00005D9881E044
S113030090E0C0CF08950F931F93CF93DF93182FDE
S1130310EB01D6DF8881882351F001E0010F812FA2
S1130320D2DF8991E7DF102F88818111F6CFDF9129
S1130330CF911F910F9108958BE0809381008DE7F9
S113034090E0909389008093880082E080936F000E
S1130350109285001092840080910401909105010F
S1130360A0910601B09107018093E8019093E901FF
S1130370A093EA01B093EB018FB780688FBF089513
S11303801F920F920FB60F9211248F939F93AF93E6
S1130390BF938091E8019091E901A091EA01B091A5
S11303A0EB010197A109B1098093E8019093E90158
S11303B0A093EA01B093EB01892B8A2B8B2B99F440
S11303C081E08093EC018091040190910501A0915A
S11303D00601B09107018093E8019093E901A0938D
S11303E0EA01B093EB01BF91AF919F918F910F9070
S11303F00FBE0F901F901895813081F0E1ECF0E072
S1130400808188618083E2ECF0E080818660808373
S113041083E38093C4001092C5000895E9ECF0E0F2
S1130420808188618083EAECF0E08081866080834B
S113043083E38093CC001092CD000895813029F499
S11304408091C800882384F008958091C000882397
S1130450ACF4A6ECB0E0E0ECF0E08C918093E50124
S113046080818823D4F30895AEECB0E0E8ECF0E0AA
S11304708C918093E50180818823D4F308956130C1
S113048041F0E0ECF0E0908195FFFDCF8093C60051
S11304900895E8ECF0E0908195FFFDCF8093CE00C5
S11304A008958230910518F08130910579F4809196
S11304B0C00085FF09C060E08091E701E0DF109291
S11304C0E70181E090E0089581E090E00895ECE791
S11304D0F0E0808180648083EAE7F0E080818768CF
S11304E080830895ECE7F0E0208187709927287FC6
S11304F0822B8083EAE7F0E08081806480838081BE
S113050086FDFDCF80917800909179000895823026
S1130510910520F08130910509F06BC081E0D3DEB4
S113052080E090E0DFDF90930B0280930A0281E089
S113053090E0D8DF20910A0230910B0232503093C0
S11305400B0220930A0292509093090280930802AE
S1130550873991057CF067E771E081E0D4DE88E0BB
S1130560809307028091E70188608093E70181E02E
S113057090E008958A369F4F7CF46DE771E081E046
S1130580C2DE84E0809307028091E7018460809357
S1130590E70181E090E008952A368FEF38077CF474
S11305A062E871E081E0AFDE81E080930702809130
S11305B0E70181608093E70181E090E008952739A5
S11305C031057CF065E871E081E09DDE82E0809396
S11305D007028091E70182608093E70181E090E067
S11305E008956AE871E081E08EDE1092070281E0EE
S11305F090E00895CF93DF93CDB7DEB72A970FB677
S1130600F894DEBF0FBECDBF11B88FEF82B984B9A5
S113061015B817B888B980E38AB98FEC8BB90F2E57
S1130620F8ECBF2EF02DA12C912C812C54EF41E03D
S113063030E020E004C0B62EA72E982E892E652F18
S1130640742F832F922F2B2D3A2D492D582D52D1B3
S11306505B2D4A2D392D282D6115710581059105D4
S113066051F718EC00E0F12CE12C04C0162F072FF1
S1130670F82EE92E6B2D7A2D892D982D212F302FD0
S11306804F2D5E2D37D1B12EA02E9F2C8E2C6115AF
S113069071058105910551F70F2EF8ECBF2EF02D51
S11306A0A12C912C812C04C0B62EA72E982E892E15
S11306B0612F702F8F2D9E2D2B2D3A2D492D582DC6
S11306C019D11B2D0A2DF92CE82C61157105810512
S11306D0910551F70F2EF4E6EF2EF02DF12C00E0EA
S11306E010E004C0E62EF72E082F192F6B2D7A2D5B
S11306F0892D982D2E2D3F2D402F512FFBD0BE2C10
S1130700AF2C902E812E611571058105910551F74D
S113071064EF71E080E090E02E2D3F2D402F512FAB
S1130720E9D029013A0168EC70E080E090E02E2DD8
S11307303F2D402F512FDED049015A0164E670E06D
S113074080E090E02E2D3F2D402F512FD3D08AE012
S1130750E5E6F1E0DE01119601900D928A95E1F74C
S1130760EAEDF1E010824182528263827482458212
S113077056826782708687EF90E092878187EFECDC
S1130780F1E0108281829282A382B4828582968271
S1130790A782B08687E892E092878187E4ECF1E053
S11307A0108281829282A382B48285829682A782F9
S11307B0B0868CE690E092878187E9EBF1E01082C5
S11307C081829282A382B48285829682A782B08635
S11307D08CE990E092878187EEEAF1E01082218330
S11307E0328343835483258336834783508781E54B
S11307F092E092878187E0920401F09205010093D0
S1130800060110930701E092E801F092E9010093D8
S1130810EA011093EB0190DD5EDD59DE80E0ECDD52
S113082080E00CDE992493947E018BE0E80EF11CA9
S113083080B18095847080930E0286B18925817081
S113084080930D0286B1809582708093ED0186B10C
S11308508095847080930C0286B180958870809313
S1130860060286B1809580718093100286B18095CE
S1130870807280930F02DE0111965D01F5010191F2
S113088011915F01D80115964D915D916D917C9107
S1130890189711968D919D910D90BC91A02D48179C
S11308A059076A077B0781F4F80180810184F28586
S11308B0E02D082E000C990B0995D8018C93F801B2
S11308C01582168217821086F80185819681A78188
S11308D0B0850196A11DB11D85839683A783B0873A
S11308E0AE14BF0459F68091EC018823E1F3109211
S11308F0EC019ECFA1E21A2EAA1BBB1BFD010DC069
S1130900AA1FBB1FEE1FFF1FA217B307E407F507BB
S113091020F0A21BB30BE40BF50B661F771F881F97
S1130920991F1A9469F760957095809590959B012D
S1130930AC01BD01CF010895EE0FFF1F0024001C80
S11109400BBE0790F691E02D0994F894FFCFBA
S113094E0A00140001000000476F6C643A000000B6
S113095E0000000000000000000000000000000085
S113096E00000000000000000020202020537461CD
S113097E67653A00000000000000000000202053CC
S113098E746167653A00000000000000000000007A
S113099E002053746167653A0000000000000000F7
S11309AE0000000000DA01CF01C401B901AE014814
S11309BE65616C74683A007269676874006C656688
S11309CE7400757000646F776E006E6F20696E70C0
S11309DE757400476F6C643A32302020537461672B
S11109EE653A314865616C74683A3130000036
S9030000FC
