S01900004C454420546F77657220446566656E73652E737265632B
S11300004DC0000068C0000066C0000064C000006D
S113001062C0000060C000005EC000005CC0000060
S11300205AC0000058C0000056C0000054C0000070
S113003052C00000ADC100004EC000004CC0000022
S11300404AC0000048C0000046C0000044C0000090
S113005042C0000040C000003EC000003CC00000A0
S11300603AC0000038C0000036C0000034C00000B0
S113007032C0000030C000002EC000002CC00000C0
S11300802AC0000028C0000026C00000C500C80027
S1130090E700C500EE00C500F500C50011241FBE31
S11300A0CFEFD0E4DEBFCDBF11E0A0E0B1E0E2EBE2
S11300B0F9E000E00BBF02C007900D92A03BB1072E
S11300C0D9F722E0A0EBB1E001C01D92A333B2073F
S11300D0E1F798D26CC494CF82309105E1F034F406
S11300E0009759F08130910559F0089584309105B5
S11300F0C9F01CF085309105F1F481E090E0089599
S113010020911A022223B9F080913202811111C088
S113011082E090E0089520911A0221110CC083E03E
S113012090E0089520911A02211105C085E090E025
S1130130089584E090E008958130910569F01CF4FD
S1130140009739F008958230910589F08330910544
S1130150A1F481E090E008952091FA01222369F04E
S113016020913202211109C082E090E0089520918B
S1130170FA01211102C083E090E0089588309105CE
S1130180E8F5FC01EA5BFF4F09C481E090E00895C3
S113019020911902222329F020913202222361F1B5
S11301A0089520911302222339F020913202211163
S11301B025C084E090E0089520911D022223F1F0EF
S11301C02091320221111AC086E090E00895209116
S11301D01902211113C083E090E0089520911302C5
S11301E021110CC085E090E0089520911D02211199
S11301F005C087E090E0089582E090E008958130A2
S1130200910559F01CF40097C9F11BC08230910587
S113021099F08330910591F114C020911B022111B2
S113022030C02091F301233079F120910001309105
S11302300101232B61F1089520911B02211129C092
S113024003C08330910529F5809102019091030147
S1130250019690930301809302018091F3018F5FD3
S11302608093F30180910001909101010196909394
S113027001018093000183E090E0089581E090E023
S1130280089582E090E0089584E090E0089585E088
S113029090E00895181619065CF0089500002150A6
S11302A03109E1F74F5F5F4F4817590729F4089563
S11302B040E050E077E063E0272F362FEFCF5C98E3
S11302C085B95D9A00005D9882E090E0E3CF0895DF
S11302D081E0F5CF0895813118F48158F0CF089565
S11302E08155EDCF089584E690E0D4DF88E3E7DF1D
S11302F086E0E5DF8FE0E3DF81E0E1DF8AE090E0A4
S1130300C9CF08955C9A85B95D9A00005D9881E033
S113031090E0C0CF08950F931F93CF93DF93182FCE
S1130320EB01D6DF8881882351F001E0010F812F92
S1130330D2DF8991E7DF102F88818111F6CFDF9119
S1130340CF911F910F9108958BE0809381008DE7E9
S113035090E0909389008093880082E080936F00FE
S113036010928500109284008091040190910501FF
S1130370A0910601B09107018093F5019093F601D5
S1130380A093F701B093F8018FB780688FBF0895E9
S11303901F920F920FB60F9211248F939F93AF93D6
S11303A0BF938091F5019091F601A091F701B0916E
S11303B0F8010197A109B1098093F5019093F60121
S11303C0A093F701B093F801892B8A2B8B2B99F416
S11303D081E08093F9018091040190910501A0913D
S11303E00601B09107018093F5019093F601A09363
S11303F0F701B093F801BF91AF919F918F910F9046
S11304000FBE0F901F901895813081F0E1ECF0E061
S1130410808188618083E2ECF0E080818660808363
S113042083E38093C4001092C5000895E9ECF0E0E2
S1130430808188618083EAECF0E08081866080833B
S113044083E38093CC001092CD000895813029F489
S11304508091C800882384F008958091C000882387
S1130460ACF4A6ECB0E0E0ECF0E08C918093F20107
S113047080818823D4F30895AEECB0E0E8ECF0E09A
S11304808C918093F20180818823D4F308956130A4
S113049041F0E0ECF0E0908195FFFDCF8093C60041
S11304A00895E8ECF0E0908195FFFDCF8093CE00B5
S11304B008958230910518F08130910579F4809186
S11304C0C00085FF09C060E08091F401E0DF109274
S11304D0F40181E090E0089581E090E00895ECE774
S11304E0F0E0808180648083EAE7F0E080818768BF
S11304F080830895ECE7F0E0208187709927287FB6
S1130500822B8083EAE7F0E08081806480838081AD
S113051086FDFDCF80917800909179000895823016
S1130520910520F08130910509F06BC081E0D3DEA4
S113053080E090E0DFDF909318028093170281E05F
S113054090E0D8DF20911702309118023250309396
S1130550180220931702925090931602809315026A
S1130560873991057CF069E771E081E0D4DE88E0A9
S1130570809314028091F40188608093F40181E0F7
S113058090E008958A369F4F7CF46FE771E081E034
S1130590C2DE84E0809314028091F401846080932D
S11305A0F40181E090E008952A368FEF38077CF457
S11305B064E871E081E0AFDE81E080931402809111
S11305C0F40181608093F40181E090E0089527397B
S11305D031057CF067E871E081E09DDE82E0809384
S11305E014028091F40182608093F40181E090E030
S11305F008956CE871E081E08EDE1092140281E0CF
S113060090E00895CF93DF93CDB7DEB72C970FB664
S1130610F894DEBF0FBECDBF11B88FEF82B984B995
S113062015B817B888B980E38AB98FEC8BB918EC80
S113063000E0F12CE12C54EF41E030E020E004C074
S1130640162F072FF82EE92E652F742F832F922F44
S1130650212F302F4F2D5E2D7FD1512F402F3F2D35
S11306602E2D611571058105910551F70F2EF8ECBA
S1130670BF2EF02DA12C912C812C04C0B62EA72EB8
S1130680982E892E612F702F8F2D9E2D2B2D3A2D74
S1130690492D582D61D11B2D0A2DF92CE82C6115FB
S11306A071058105910551F718EC00E0F12CE12C5E
S11306B004C0162F072FF82EE92E6B2D7A2D892DC5
S11306C0982D212F302F4F2D5E2D46D1B12EA02EE7
S11306D09F2C8E2C611571058105910551F70F2E04
S11306E0F8ECBF2EF02DA12C912C812C04C0B62E39
S11306F0A72E982E892E612F702F8F2D9E2D2B2D96
S11307003A2D492D582D28D11B2D0A2DF92CE82CD2
S1130710611571058105910551F70F2EF4E6EF2E51
S1130720F02DF12C00E010E004C0E62EF72E082F87
S1130730192F6B2D7A2D892D982D2E2D3F2D402F7D
S1130740512F0AD1BE2CAF2C902E812E611571052C
S11307508105910551F764EF71E080E090E02E2D62
S11307603F2D402F512FF8D029013A0168EC70E059
S113077080E090E02E2D3F2D402F512FEDD04901E8
S11307805A0164E670E080E090E02E2D3F2D402F6A
S1130790512FE2D08CE0E5E6F1E0DE011196019004
S11307A00D928A95E1F7E7EEF1E0108241825282E0
S11307B06382748245825682678270868FEF90E0EE
S11307C092878187ECEDF1E0108281829282A3828C
S11307D0B48285829682A782B0868FE892E092875F
S11307E08187E1EDF1E0108281829282A382B4825A
S11307F085829682A782B0868CE690E09287818774
S1130800E6ECF1E0108281829282A382B482858236
S11308109682A782B0868CE990E092878187EBEB81
S1130820F1E0108281829282A382B48285829682D0
S1130830A782B0868EEB90E092878187E0EBF1E0AF
S113084010822183328343835483258336834783F1
S1130850508789E592E092878187E0920401F092C3
S113086005010093060110930701E092F501F0924F
S1130870F6010093F7011093F80166DD34DD2FDEF5
S113088080E0C2DD80E0E2DD992493945E018DE096
S1130890A80EB11C80B18095847080931B0286B130
S11308A08925817080931A0286B180958270809325
S11308B0FA0186B1809584708093190286B180957F
S11308C088708093130286B18095807180931D0295
S11308D086B18095807280931C02DE0111967D01A1
S11308E0F701019111917F01D80115964D915D9108
S11308F06D917C91189711968D919D910D90BC915D
S1130900A02D481759076A077B0781F4F8018081F5
S11309100184F285E02D082E000C990B0995D8016D
S11309208C93F8011582168217821086F80185814E
S11309309681A781B0850196A11DB11D85839683FB
S1130940A783B087EA14FB0459F68091F901882340
S1130950E1F31092F9019ECFA1E21A2EAA1BBB1B50
S1130960FD010DC0AA1FBB1FEE1FFF1FA217B30777
S1130970E407F50720F0A21BB30BE40BF50B661F8D
S1130980771F881F991F1A9469F760957095809551
S113099090959B01AC01BD01CF010895EE0FFF1F9F
S11309A00024001C0BBE0790F691E02D0994F894E6
S10509B0FFCF73
S11309B20A00140001000000476F6C643A00000052
S11309C20000000000000000000000000000000021
S11309D20000000000000000002020202053746169
S11309E267653A0000000000000000000020205368
S11309F2746167653A000000000000000000000016
S1130A02002053746167653A000000000000000092
S1130A120000000000E701DC01D101C601BB01B006
S1130A22014865616C74683A007269676874006CA5
S1130A3265667400757000646F776E006E6F20696E
S1130A426E70757400476F6C643A323020205374B0
S1130A526167653A314865616C74683A3130000007
S9030000FC
