:100000004DC0000068C0000066C0000064C0000071
:1000100062C0000060C000005EC000005CC0000064
:100020005AC0000058C0000056C0000054C0000074
:1000300052C000002BC200004EC000004CC00000A7
:100040004AC0000048C0000046C0000044C0000094
:1000500042C0000040C000003EC000003CC00000A4
:100060003AC0000038C0000036C0000034C00000B4
:1000700032C0000030C000002EC000002CC00000C4
:100080002AC0000028C0000026C000008B017400B8
:1000900094008B019D008B01A7008B0111241FBED2
:1000A000CFEFD0E4DEBFCDBF11E0A0E0B1E0EEE6DF
:1000B000FFE000E00BBF02C007900D92A43CB10727
:1000C000D9F722E0A4ECB1E001C01D92A637B20737
:1000D000E1F730D54AC794CF8830910508F041C088
:1000E000FC01EA5BFF4FF3C620915A02222331F054
:1000F00020917502222309F411C108952091540220
:10010000222331F020917502222309F40AC10895B7
:1001100020916002222309F406C120917502211169
:1001200002C186E090E0089520915A022111FBC09F
:1001300020917502222309F1089520915402211182
:10014000F2C020917502222309F459C0089520912C
:1001500060022111E8C020917502222309F491C0A8
:1001600008958530910509F44AC08730910509F456
:1001700088C08330910509F0D6C0E0913402F09137
:100180003502EE0FFF1FE050FF4F0190F081E02D90
:1001900084E190E0918380832091220130912301BA
:1001A0008091340290913502FC01EE0FFF1FE05068
:1001B000FF4F0190F081E02D4081518124173507D8
:1001C00008F4A0C041E0428340E140933702FC01C3
:1001D000EE0FFF1FE050FF4F0190F081E02D4081B6
:1001E0005181241B350B309323012093220101966A
:1001F000909335028093340283E090E00895E0917B
:100200003402F0913502EE0FFF1FE050FF4F0190D6
:10021000F081E02D88E290E091838083209122019B
:10022000309123018091340290913502FC01EE0F50
:10023000FF1FE050FF4F0190F081E02D4081518180
:100240002417350708F461C041E0428340E240933F
:100250003702FC01EE0FFF1FE050FF4F0190F081CD
:10026000E02D40815181241B350B309323012093D5
:1002700022010196909335028093340285E090E04C
:100280000895E0913402F0913502EE0FFF1FE05027
:10029000FF4F0190F081E02D8CE390E0918380830B
:1002A00020912201309123018091340290913502F6
:1002B000FC01EE0FFF1FE050FF4F0190F081E02D99
:1002C000408151812417350718F141E0428340E312
:1002D00040933702FC01EE0FFF1FE050FF4F0190EB
:1002E000F081E02D40815181241B350B3093230197
:1002F000209322010196909335028093340287E087
:1003000090E0089583E090E0089585E090E00895FE
:1003100087E090E0089581E090E0089582E090E029
:10032000089584E090E008958130910551F0823085
:10033000910581F0009789F48091750281111AC0AE
:1003400014C080917502882381F080915B02833014
:10035000C8F410C010925B020DC08130910551F0BD
:100360008230910579F0009791F410925B0280E061
:1003700090E0089580915B028F5F80935B0281E043
:1003800090E008958FEF8093370282E090E0089527
:10039000181619065CF00895000021503109E1F7A4
:1003A0004F5F5F4F4817590729F4089540E050E028
:1003B00077E063E0272F362FEFCF5C9885B95D9A01
:1003C00000005D9882E090E0E3CF089581E0F5CFF2
:1003D0000895813118F48158F0CF08958155EDCFFB
:1003E000089584E690E0D4DF88E3E7DF86E0E5DF88
:1003F0008FE0E3DF81E0E1DF8AE090E0C9CF08959C
:100400005C9A85B95D9A00005D9881E090E0C0CF6C
:1004100008950F931F93CF93DF93182FEB01D6DF2F
:100420008881882351F001E0010F812FD2DF89916B
:10043000E7DF102F88818111F6CFDF91CF911F91D7
:100440000F9108958BE0809381008DE790E0909369
:1004500089008093880082E080936F00109285006D
:10046000109284008091240190912501A091260191
:10047000B09127018093380290933902A0933A02F9
:10048000B0933B028FB780688FBF08951F920F9281
:100490000FB60F9211248F939F93AF93BF938091C8
:1004A000380290913902A0913A02B0913B02019733
:1004B000A109B1098093380290933902A0933A02BE
:1004C000B0933B02892B8A2B8B2B99F481E080938C
:1004D0003C028091240190912501A0912601B091C8
:1004E00027018093380290933902A0933A02B09387
:1004F0003B02BF91AF919F918F910F900FBE0F90D4
:100500001F901895813081F0E1ECF0E080818861E6
:100510008083E2ECF0E080818660808383E38093D7
:10052000C4001092C5000895E9ECF0E08081886174
:100530008083EAECF0E080818660808383E38093AF
:10054000CC001092CD000895813029F48091C8002C
:10055000882384F008958091C0008823ACF4A6EC31
:10056000B0E0E0ECF0E08C9180930602808188237B
:10057000D4F30895AEECB0E0E8ECF0E08C91809319
:10058000060280818823D4F30895613041F0E0ECC5
:10059000F0E0908195FFFDCF8093C6000895E8ECD0
:1005A000F0E0908195FFFDCF8093CE0008958230DA
:1005B000910518F08130910591F48091C00085FF7C
:1005C0000CC060E080913702E0DF809137028078D4
:1005D0008093370281E090E0089581E090E00895F3
:1005E000813041F0E0ECF0E080818823ECF78091ED
:1005F000C6000895E8ECF0E080818823ECF7809154
:10060000CE0008958230910501F134F4009769F02D
:1006100081309105A9F032C08430910551F1ECF0A0
:100620008530910509F4B9C029C08FEF8093550238
:1006300085E080935E0210925D0281E090E0089573
:1006400020915C022111ACC0089520915C0221111F
:10065000A9C081E08093750252C0909155028091AB
:100660005E02981708F44BC080913602813091F4F5
:100670007AC080915D028F3068F441C0843091056A
:1006800009F43DC08530910509F46DC083309105B2
:1006900009F088C08091C00088234CF580E0A0DF7D
:1006A00080933602823051F4809120019091210193
:1006B0004497909321018093200117C0833051F417
:1006C0008091200190912101449790932101809382
:1006D00020010BC0843049F48091200190912101C8
:1006E0004497909321018093200180E02DDF809139
:1006F00055028F5F8093550283E090E008958091CA
:100700005D028F3050F180915502811104C081E863
:10071000809337021DC0813021F482E88093370234
:1007200017C0823021F483E88093370211C08330F0
:1007300021F484E8809337020BC0843021F485E8EB
:100740008093370205C0853019F480E88093370222
:1007500010925D0284E090E008958F5F80935D02C7
:1007600084E090E00895809137028F77809337027C
:100770008091200190912101181619062CF061E951
:1007800071E081E046DE04C06AE971E081E041DEAB
:100790001092750285E090E0089580E090E0089561
:1007A00082E090E00895CF92DF92EF92FF920F9354
:1007B0001F93CF93DF93CDB7DEB7C556D1090FB6E0
:1007C000F894DEBF0FBECDBF8C016B017A0196E0BD
:1007D000E8E2F1E0DE01119601900D929A95E1F7C1
:1007E000FE0137968BE1DF011D928A95E9F74AE019
:1007F000BE016A5C7F4FC80185D3BE016A5C7F4F32
:10080000CE0101966DD30A301105DCF48AE0E9E4EB
:10081000F1E0DE01AE5ABF4F01900D928A95E1F7EB
:10082000E2E5F0E0EC0FFD1F3A968AE0DF011D9251
:100830008A95E9F7BE016E5A7F4FCE0182965BD34F
:100840003DC0C8010A978A359105D8F489E0EDE5E5
:10085000F1E0DE01AE5ABF4F01900D928A95E1F7AB
:10086000E2E5F0E0EC0FFD1F39968BE0DF011D9211
:100870008A95E9F7BE016E5A7F4FCE0182963BD32F
:100880001DC004361105D4F088E0E1E7F1E0DE0197
:10089000AE5ABF4F01900D928A95E1F7E2E5F0E084
:1008A000EC0FFD1F38968CE0DF011D928A95E9F769
:1008B000BE016E5A7F4FCE0182961DD3BE016E5D82
:1008C0007F4FCE0101960CD34AE0BE016A5C7F4F98
:1008D000C60118D3BE016A5C7F4FCE01019600D3DA
:1008E00098E0E2EAF1E0DE01A65BBF4F01900D92D5
:1008F0009A95E1F7BE01665B7F4FCE010196F0D27B
:100900004AE0BE016A5C7F4FC701FCD2BE016A5C4F
:100910007F4FCE010196E4D2CE010196CB59DF4F35
:100920000FB6F894DEBF0FBECDBFDF91CF911F9100
:100930000F91FF90EF90DF90CF9008950097B1F066
:100940008130910579F480911E0190911F010397E8
:1009500009F47AC08091200190912101892B09F43A
:1009600076C004C08130910509F073C08091C00049
:1009700088230CF066C080E033DE8093360280E08E
:10098000E3DD8091360294E0899F90011124853047
:10099000A9F480912201909123014497909323011F
:1009A00080932201409120015091210160911E010C
:1009B00070911F01F8DE81E090E008952832310542
:1009C000A9F48091220190912301889790932301AB
:1009D00080932201409120015091210160911E01DC
:1009E00070911F01E0DE81E090E008952C33310525
:1009F000A9F48091220190912301CC979093230137
:100A000080932201409120015091210160911E01AB
:100A100070911F01C8DE81E090E0089540912001AF
:100A20005091210160911E0170911F01809122015E
:100A300090912301B8DEBC0181E0EBDC81E090E025
:100A4000089581E090E0089582E090E0089583E0C9
:100A500090E00895ECE7F0E0808180648083EAE72D
:100A6000F0E08081876880830895ECE7F0E02081E2
:100A700087709927287F822B8083EAE7F0E08081C6
:100A800080648083808186FDFDCF80917800909185
:100A9000790008958230910520F08130910509F0A8
:100AA00048C080E090E0E1DF9093590280935802C3
:100AB00081E090E0DADF2091580230915902325003
:100AC000309359022093580292509093570280938A
:100AD00056024091750241112AC08739910534F0C0
:100AE00088E08093370281E090E008958A369F4F36
:100AF00034F484E08093370281E090E008952A3650
:100B00008FEF380734F481E08093370281E090E082
:100B100008952739310534F082E08093370281E06F
:100B200090E008951092370281E090E0089581E00E
:100B300090E00895CF93DF93CDB7DEB72C970FB633
:100B4000F894DEBF0FBECDBF11B88FEF82B984B964
:100B500015B817B888B980E38AB98FEC8BB918EC4F
:100B600000E0F12CE12C54EF41E030E020E004C043
:100B7000162F072FF82EE92E652F742F832F922F13
:100B8000212F302F4F2D5E2D80D1512F402F3F2D03
:100B90002E2D611571058105910551F70F2EF8EC89
:100BA000DF2EF02DC12CB12CA12C04C0D62EC72EC7
:100BB000B82EA92E612F702F8F2D9E2D2D2D3C2DFF
:100BC0004B2D5A2D62D11D2D0C2DFB2CEA2C6115BD
:100BD00071058105910551F714E600E0F12CE12C37
:100BE00004C0162F072FF82EE92E6D2D7C2D8B2D8E
:100BF0009A2D212F302F4F2D5E2D47D1D12EC02E73
:100C0000BF2CAE2C611571058105910551F70F2E92
:100C1000F4E6DF2EF02DC12CB12CA12C04C0D62E71
:100C2000C72EB82EA92E612F702F8F2D9E2D2D2D02
:100C30003C2D4B2D5A2D29D11D2D0C2DFB2CEA2C92
:100C4000611571058105910551F70F2EF4E6EF2E20
:100C5000F02DF12C00E010E004C0E62EF72E082F56
:100C6000192F6D2D7C2D8B2D9A2D2E2D3F2D402F44
:100C7000512F0BD1DE2CCF2CB02EA12E611571057A
:100C80008105910551F764EF71E080E090E02E2D31
:100C90003F2D402F512FF9D029013A0168EC70E027
:100CA00080E090E02E2D3F2D402F512FEED04901B6
:100CB0005A0164E670E080E090E02E2D3F2D402F39
:100CC000512FE3D08CE0E5E8F1E0DE0111960190D0
:100CD0000D928A95E1F7EBEFF1E0108241825282AA
:100CE0006382748245825682678270868EE994E0C0
:100CF00092878187E0EFF1E0108281829282A38265
:100D0000B48285829682A782B0868AE495E0928733
:100D10008187E5EEF1E0108281829282A382B48223
:100D200085829682A782B0868CE690E09287818742
:100D3000EAEDF1E0108221833283438354832583DB
:100D400036834783508787ED92E092878187EFEC67
:100D5000F1E01082218332834383548325833683D9
:100D60004783508782E093E092878187E4ECF1E04B
:100D700010822183328343835483258336834783C0
:100D8000508784E991E092878187E0922401F09274
:100D900025010093260110932701E0923802F0927A
:100DA000390200933A0210933B024CDB1ADB40916C
:100DB00020015091210160911E0170911F018091CD
:100DC000220190912301EFDCBC0181E022DB42DEB5
:100DD00080E098DB80E0B8DBBB24B3946E018DE04B
:100DE000C80ED11C86B18B25817080935C0286B1C0
:100DF0008095847080935A0286B180958870809324
:100E0000540286B18095807180936002DE01119654
:100E10007D01F701019111917F01D80115964D9146
:100E20005D916D917C91189711968D919D910D908A
:100E3000BC91A02D481759076A077B0781F4F80178
:100E400080810184F285E02D082E000C990B099514
:100E5000D8018C93F8011582168217821086F8014A
:100E600085819681A781B0850196A11DB11D8583DD
:100E70009683A783B087EC14FD0459F680913C0259
:100E80008823E1F310923C02ADCFA1E21A2EAA1BF7
:100E9000BB1BFD010DC0AA1FBB1FEE1FFF1FA2172A
:100EA000B307E407F50720F0A21BB30BE40BF50B27
:100EB000661F771F881F991F1A9469F760957095B0
:100EC000809590959B01AC01BD01CF010895EE0F77
:100ED000FF1F0024001C0BBE0790F691E02D099423
:100EE000FB01DC010D900020E9F7119701900D92B4
:100EF0000020E1F70895FB01DC0101900D92002034
:100F0000E1F70895BB274A3031F4992322F4BDE27A
:100F1000909581959F4F01C0BB27FB015527AA27BC
:100F2000880F991FAA1FA41710F0A41B8395505176
:100F3000B9F7A05DAA3308F0A95DA193009779F7EE
:100F4000B111B1931192CB0100C0DC01FC01672FFC
:100F500071917723E1F7329704C07C916D93708390
:0E0F60006291AE17BF07C8F30895F894FFCF53
:100F6E0031022E022B022802250222021F021C022F
:100F7E0019021602130210020D020A0207020100E4
:100F8E000A00780001000000476F6C643A00000010
:100F9E000000000000000000000000000000000043
:100FAE000000000000000000002020205374616744
:100FBE00653A0000000000000000000000202053F1
:100FCE00746167653A000000000000000000000038
:100FDE00002053746167653A0000000000000000B5
:100FEE000000000000FB01F001E501DA01CF01C4B1
:100FFE0001596F75206C6F736500596F7520776995
:10100E006E004865616C74683A00476F6C643A32E2
:10101E0030202053746167653A314865616C74689D
:04102E003A31300023
:00000001FF
